{
  "contractName": "FleetFactory",
  "abi": [
    {
      "constant": true,
      "inputs": [],
      "name": "proxyFactory",
      "outputs": [
        {
          "name": "",
          "type": "address"
        }
      ],
      "payable": false,
      "stateMutability": "view",
      "type": "function"
    },
    {
      "inputs": [
        {
          "name": "_proxyFactory",
          "type": "address"
        }
      ],
      "payable": false,
      "stateMutability": "nonpayable",
      "type": "constructor"
    },
    {
      "anonymous": false,
      "inputs": [
        {
          "indexed": true,
          "name": "owner",
          "type": "address"
        },
        {
          "indexed": false,
          "name": "fleet",
          "type": "address[]"
        }
      ],
      "name": "FleetDeployed",
      "type": "event"
    },
    {
      "constant": false,
      "inputs": [
        {
          "name": "owner",
          "type": "address"
        },
        {
          "name": "size",
          "type": "uint256"
        },
        {
          "name": "template",
          "type": "address"
        }
      ],
      "name": "deployFleet",
      "outputs": [],
      "payable": false,
      "stateMutability": "nonpayable",
      "type": "function"
    }
  ],
  "bytecode": "0x608060405234801561001057600080fd5b506040516020806103fe8339810180604052602081101561003057600080fd5b5051600080546001600160a01b039092166001600160a01b031990921691909117905561039c806100626000396000f3fe608060405234801561001057600080fd5b50600436106100365760003560e01c8063519de1ae1461003b578063c10f1a7514610073575b600080fd5b6100716004803603606081101561005157600080fd5b506001600160a01b03813581169160208101359160409091013516610097565b005b61007b610361565b604080516001600160a01b039092168252519081900360200190f35b6000546040805184815260208086028201019091526001600160a01b03909116906060908480156100d2578160200160208202803883390190505b506040805160018082528183019092529192506060919060208083019080388339019050509050858160008151811061010757fe5b6001600160a01b039092166020928302919091019091015260005b858110156102d95760408051600160e01b6361b69abd0281526001600160a01b038781166004830152602482018390526000604483018190529251908716916361b69abd91608480830192602092919082900301818787803b15801561018757600080fd5b505af115801561019b573d6000803e3d6000fd5b505050506040513d60208110156101b157600080fd5b5051845190915081908590849081106101c657fe5b6001600160a01b03928316602091820292909201810191909152604051600160e01b63b63e800d0281526001602482018190526000604483018190526084830181905260a4830181905260c4830181905260e483018190526101006004840190815288516101048501528851879687169563b63e800d958b9594938493849384938493928392606483019261012401918c82019102808383895b83811015610278578181015183820152602001610260565b505050509050018381038252600081526020016020019950505050505050505050600060405180830381600087803b1580156102b357600080fd5b505af11580156102c7573d6000803e3d6000fd5b50506001909401935061012292505050565b50856001600160a01b03167f1eb5c30bcd35b94d9582497e50a24649e0801200095081f4fd530345456cd483836040518080602001828103825283818151815260200191508051906020019060200280838360005b8381101561034657818101518382015260200161032e565b505050509050019250505060405180910390a2505050505050565b6000546001600160a01b03168156fea165627a7a7230582097ef1f862a337b704690d2b5460f9fec5fe4626c763036a54a88f8cc03ec8a0f0029",
  "source": "pragma solidity >= 0.5.0 < 0.7.0;\n\nimport \"@gnosis.pm/safe-contracts/contracts/proxies/GnosisSafeProxyFactory.sol\";\nimport \"@gnosis.pm/safe-contracts/contracts/GnosisSafe.sol\";\n\ncontract FleetFactory {\n  GnosisSafeProxyFactory public proxyFactory;\n\n  event FleetDeployed(address indexed owner, address[] fleet);\n\n  constructor(GnosisSafeProxyFactory _proxyFactory) public {\n    proxyFactory = _proxyFactory;\n  }\n\n  function deployFleet(address owner, uint256 size, address template) external {\n    GnosisSafeProxyFactory _proxyFactory = proxyFactory;\n    address[] memory fleet = new address[](size);\n    address[] memory ownerList = new address[](1);\n    ownerList[0] = owner;\n    for (uint i = 0; i < size; i++) {\n      address payable proxy = address(_proxyFactory.createProxy(template, \"\"));\n      fleet[i] = proxy;\n      GnosisSafe safe = GnosisSafe(proxy);\n      // safe is set up to have a single owner\n      safe.setup(\n        ownerList,\n        1,\n        address(0),\n        \"\",\n        address(0),\n        address(0),\n        0,\n        address(0)\n      );\n    }\n    emit FleetDeployed(owner, fleet);\n  }\n}\n",
  "sourcePath": "/Users/alexherrmann/gnosis/dex-liquidity-provision/contracts/FleetFactory.sol",
  "compiler": {
    "name": "solc",
    "version": "0.5.6+commit.b259423e.Emscripten.clang"
  },
  "schemaVersion": "3.2.2",
  "updatedAt": "2020-07-24T09:07:43.350Z",
  "devdoc": {
    "methods": {}
  },
  "userdoc": {
    "methods": {}
  }
}